:020000040800F2
:1000000000000220D97200082D0F00082F0F0008F1
:10001000310F0008330F0008350F00080000000002
:10002000000000000000000000000000816C0008DB
:10003000370F000800000000216D0008390F00088C
:100040002973000829730008297300082973000820
:100050002973000829730008297300082973000810
:100060002973000829730008297300082973000800
:1000700029730008297300082973000829730008F0
:10008000297300082973000829730008510F00081C
:10009000610F0008297300082973000829730008FC
:1000A00029730008297300082973000829730008C0
:1000B000710F0008810F00082973000829730008D8
:1000C00029730008297300082973000829730008A0
:1000D0002973000829730008297300082973000890
:1000E0002973000829730008000000002973000824
:1000F0002973000829730008297300082973000870
:10010000297300082973000829730008297300085F
:10011000297300082973000829730008297300084F
:10012000297300082973000829730008297300083F
:10013000297300082973000829730008297300082F
:1001400000000000000000000000000000000000AF
:10015000297300082973000829730008297300080F
:1001600029730008297300082973000829730008FF
:100170002973000829730008297300080000000093
:1001800029730008297300082973000829730008DF
:1001900029730008297300082973000829730008CF
:1001A00029730008297300082973000829730008BF
:1001B00029730008297300082973000829730008AF
:1001C000297300082973000829730008297300089F
:1001D000297300082973000829730008297300088F
:1001E000297300082973000829730008297300087F
:1001F000297300082973000829730008297300086F
:10020000297300082973000829730008297300085E
:10021000297300082973000829730008297300084E
:1002200029730008297300082973000800000000E2
:1002300029730008297300080000000029730008D2
:10024000297300082973000829730008297300081E
:10025000297300082973000829730008297300080E
:1002600029730008297300082973000829730008FE
:100270002973000829730008297300080000000092
:100280002973000829730008297300080000000082
:080290000000000029730008C2
:1002A00010B5054C237833B9044B13B10448AFF3B0
:1002B00000800123237010BDBC010020000000005D
:1002C000B87C000808B5034B1BB103490348AFF3E2
:1002D000008008BD00000000C0010020B87C0008BC
:1002E00001F0FF01102A2BDB10F0070F08D010F8E7
:1002F000013B013A8B422DD010F0070F42B3F6D1EB
:10030000F0B441EA012141EA014122F007047FF003
:1003100000070023F0E80256083C85EA010586EA5A
:10032000010685FA47F5A3FA87F586FA47F6A5FA96
:1003300087F68EB9EED1F0BC01F0FF0102F00702A2
:1003400032B110F8013B013A83EA010313B1F8D14D
:100350000020704701387047002D06BF354603382E
:10036000073815F0010F07D1013015F4807F02BF67
:10037000013015F4C03F0130F0BC0138704700BFB8
:1003800053B94AB9002908BF00281CBF4FF0FF31FC
:100390004FF0FF3000F074B9ADF1080C6DE904CEF8
:1003A00000F006F8DDF804E0DDE9022304B0704750
:1003B0002DE9F047089D04468E46002B4DD18A4218
:1003C000944669D9B2FA82F252B101FA02F3C2F14B
:1003D000200120FA01F10CFA02FC41EA030E9440DC
:1003E0004FEA1C48210CBEFBF8F61FFA8CF708FBFD
:1003F00016E341EA034306FB07F199420AD91CEBD5
:10040000030306F1FF3080F01F81994240F21C8106
:10041000023E63445B1AA4B2B3FBF8F008FB10334E
:1004200044EA034400FB07F7A7420AD91CEB040483
:1004300000F1FF3380F00A81A74240F20781644453
:10044000023840EA0640E41B00261DB1D4400023D8
:10045000C5E900433146BDE8F0878B4209D9002D3C
:1004600000F0EF800026C5E9000130463146BDE8C6
:10047000F087B3FA83F6002E4AD18B4202D3824230
:1004800000F2F980841A61EB030301209E46002DDF
:10049000E0D0C5E9004EDDE702B9FFDEB2FA82F234
:1004A000002A40F09280A1EB0C014FEA1C471FFA92
:1004B0008CFE0126200CB1FBF7F307FB131140EA79
:1004C00001410EFB03F0884208D91CEB010103F146
:1004D000FF3802D2884200F2CB804346091AA4B208
:1004E000B1FBF7F007FB101144EA01440EFB00FEDC
:1004F000A64508D91CEB040400F1FF3102D2A64541
:1005000000F2BB800846A4EB0E0440EA03409CE7DF
:10051000C6F12007B34022FA07FC4CEA030C20FA8C
:1005200007F401FA06F31C43F9404FEA1C4900FAAC
:1005300006F3B1FBF9F8200C1FFA8CFE09FB181129
:1005400040EA014108FB0EF0884202FA06F20BD99C
:100550001CEB010108F1FF3A80F08880884240F2EC
:100560008580A8F102086144091AA4B2B1FBF9F030
:1005700009FB101144EA014100FB0EFE8E4508D92B
:100580001CEB010100F1FF346CD28E456AD90238B0
:10059000614440EA0840A0FB0294A1EB0E01A14295
:1005A000C846A64656D353D05DB1B3EB080261EB03
:1005B0000E0101FA07F722FA06F3F1401F43C5E9DD
:1005C000007100263146BDE8F087C2F12003D84013
:1005D0000CFA02FC21FA03F3914001434FEA1C4755
:1005E0001FFA8CFEB3FBF7F007FB10360B0C43EA47
:1005F000064300FB0EF69E4204FA02F408D91CEBF7
:10060000030300F1FF382FD29E422DD902386344F4
:100610009B1B89B2B3FBF7F607FB163341EA034194
:1006200006FB0EF38B4208D91CEB010106F1FF38E3
:1006300016D28B4214D9023E6144C91A46EA0046DA
:1006400038E72E46284605E70646E3E61846F8E66C
:100650004B45A9D2B9EB020864EB0C0E0138A3E7B5
:100660004646EAE7204694E74046D1E7D0467BE796
:10067000023B614432E7304609E76444023842E70E
:10068000704700BF0FB400B583B004AA52F8041B32
:100690000192094806F09AFE002804DC03B05DF8D8
:1006A00004EB04B070474FF0FF3382B202490348B5
:1006B00004F083FBF2E700BFDC010020C804002047
:1006C00010B582B0044602680E4B1B689A4206D0F1
:1006D00022680D4B1B689A4205D002B010BD0B4832
:1006E00006F09EFDF4E7094B93ED087AB7EEC77A62
:1006F0008DED007B064BE12206490748FFF7C2FF5C
:10070000EBE700BF300400207C0400200000002044
:10071000507D00081C7D00082C7D0008704772B6D3
:10072000FEE7000000B59DB04C22002109A806F0AC
:100730002FFE2022002101A806F02AFE022002F04E
:100740007DFB00230093284BDA6A22F00102DA6273
:10075000DB6A03F001030093244A936923F44043C6
:1007600043F400439361936903F440430093009B77
:100770001E4B9B6913F4005FFAD0012309934FF4D9
:1007800080330A9302231293139305231493C023F7
:1007900015930423169330231793062318930823E5
:1007A000199300231A931B9309A800F075FCB0B9A4
:1007B0003F2301930323029300230393082304930D
:1007C0004023059306934FF4806207920893022119
:1007D00001A801F095F820B91DB05DF804FBFFF702
:1007E0009EFFFFF79CFF00BF00040058004802581E
:1007F00008B502F075FBFFF795FF00F05BF800F01D
:10080000EFF800F01FF900F0FBF900F031FA00F00A
:10081000A3FA00F0D5FA1E4803F0E8F91D4803F0EA
:10082000E5F906F093FB20221B4B19681B4804F0E6
:1008300043FC002201211A4802F0B8FF194C0121A3
:10084000204607F01BFA012104F1240007F016FAF4
:10085000012104F1480007F011FA134C0121204650
:1008600007F00CFA012104F1240007F007FA012136
:1008700004F1480007F002FA9FED0C0A0C4806F05C
:10088000CBFC05F0E1FF00F075F805F0EFFFFEE7A7
:10089000300400207C040020D8010020C80400207F
:1008A00090030020EC00002080000020000048445D
:1008B0000000002030B58BB0002405940694079406
:1008C00008940994274BD3F8E02042F08002C3F843
:1008D000E020D3F8E02002F080020092009AD3F8E2
:1008E000E02042F00102C3F8E020D3F8E02002F05B
:1008F00001020192019AD3F8E02042F00202C3F80B
:10090000E020D3F8E02002F002020292029AD3F82B
:10091000E02042F00402C3F8E020D3F8E02002F027
:1009200004020392039AD3F8E02042F00802C3F8CD
:10093000E020D3F8E03003F008030493049B0A4D51
:1009400022460221284602F073FA0223059301236E
:1009500006930794089405A9284602F059F90BB0AC
:1009600030BD00BF0044025800000258FEE7FEE719
:10097000FEE7FEE708B50E4A00210E4805F092FF9B
:100980000D4B18600D4A00210D4805F08BFF0D4BF3
:1009900018600D4A00210D4805F084FF0C4B1860CB
:1009A0000C4A00210C4805F07DFF0C4B186008BD77
:1009B000947D00086D090008DC020020B87D000865
:1009C0006F090008E0020020DC7D000871090008C2
:1009D000E4020020007E000873090008E8020020FD
:1009E00038B51648164B036000238360C360037458
:1009F0004374837401224261082585610E24C46119
:100A00000521016242628562C462016343638363BC
:100A1000C3630264042242648364C2640365426562
:100A200083650621C16501664366826602F0CCFBE0
:100A300000B938BDFFF773FEFBE700BFF0020020EE
:100A400000A0004038B51648164B036000238360B1
:100A5000C360037443748374012242610825856175
:100A60000E24C4610521016242628562C462016391
:100A700043638363C3630264042242648364C26485
:100A80000365426583650621C1650166436682662A
:100A900002F09AFB00B938BDFFF741FEFBE700BF4B
:100AA0009003002000A4004010B5B8B00446002117
:100AB00033913491359136913791BC2204A806F0D8
:100AC00067FC2368484A934204D0484A934245D081
:100AD00038B010BD4FF4004304934FF080531F9380
:100AE00004A801F0A9F940BB414A1368013313601F
:100AF000012B25D03F4BD3F8E02042F00802C3F889
:100B0000E020D3F8E03003F008030193019B0323B6
:100B10003393022334930024359436940923379376
:100B200033A9354802F074F822460521132000F05D
:100B30005BFA132000F08EFACAE7FFF7F0FDD3E767
:100B40002C4BD3F8EC2042F48072C3F8EC20D3F89D
:100B5000EC3003F480730093009BCBE74FF4004329
:100B600004934FF080531F9304A801F065F948BB2C
:100B70001F4A136801331360012B26D01D4BD3F895
:100B8000E02042F00202C3F8E020D3F8E03003F0A6
:100B900002030393039B4FF4405333930223349394
:100BA0000024359436940923379333A9134802F06F
:100BB0002FF822460521142000F016FA142000F028
:100BC00049FA85E7FFF7ABFDD2E70A4BD3F8EC20F3
:100BD00042F48072C3F8EC20D3F8EC3003F4807355
:100BE0000293029BCAE700BF00A0004000A400409F
:100BF000EC02002000440258000C02580004025885
:100C000000B589B0002304930593069307930193DD
:100C10000293039315484FF08042026077224260AE
:100C2000836040F2E732C2600361836103F07AF9C6
:100C300090B94FF48053049304A90C4803F0B0F921
:100C400068B900230193039301A9084803F044FA0B
:100C500040B909B05DF804FBFFF761FDE9E7FFF774
:100C60005EFDEEE7FFF75BFDF3E700BF3004002019
:100C700000B589B00023049305930693079301936D
:100C8000029303931448154A0260772242608360FE
:100C900042F20F72C2600361836103F043F990B9BD
:100CA0004FF48053049304A90B4803F079F968B911
:100CB00000230193039301A9074803F00DFA40B9FB
:100CC00009B05DF804FBFFF72AFDE9E7FFF727FD10
:100CD000EEE7FFF724FDF3E77C040020000400406A
:100CE00000B583B00368B3F1804F05D0184A934232
:100CF00018D003B05DF804FB164BD3F8E82042F09F
:100D00000102C3F8E820D3F8E83003F001030093B0
:100D1000009B002205211C2000F066F91C2000F039
:100D200099F9E6E70B4BD3F8E82042F00202C3F84A
:100D3000E820D3F8E83003F002030193019B00227E
:100D400005211D2000F050F91D2000F083F9D0E7A7
:100D5000000400400044025808B51748174B0360D0
:100D60004FF4E133436000238360C36003610C22CE
:100D700042618361C36103624362836204F0C4F829
:100D800070B900210C4804F00AFA60B900210A4841
:100D900004F02AFA50B9084804F0E2F948B908BD4D
:100DA000FFF7BDFCEDE7FFF7BAFCEFE7FFF7B7FC95
:100DB000F1E7FFF7B4FCF2E7C8040020001001409F
:100DC00008B51748174B03604FF4E1334360002325
:100DD0008360C36003610C2242618361C36103626B
:100DE0004362836204F090F870B900210C4804F06B
:100DF000D6F960B900210A4804F0F6F950B908485C
:100E000004F0AEF948B908BDFFF789FCEDE7FFF73C
:100E100086FCEFE7FFF783FCF1E7FFF780FCF2E7E2
:100E2000580500200014014010B5B8B00446002158
:100E300033913491359136913791BC2204A806F054
:100E4000A7FA2368344A934204D0344A934232D0FA
:100E500038B010BD0123049304A800F0EDFF38BBA7
:100E60002F4BD3F8F02042F01002C3F8F020D3F853
:100E7000F02002F010020092009AD3F8E02042F035
:100E80000102C3F8E020D3F8E03003F0010301933E
:100E9000019B4FF4C06333930223349300233593B3
:100EA00036930723379333A91E4801F0B1FECFE7ED
:100EB000FFF735FCD4E70123049304A800F0BCFF3E
:100EC00030BB174BD3F8F02042F02002C3F8F020DB
:100ED000D3F8F02002F020020292029AD3F8E02028
:100EE00042F00402C3F8E020D3F8E03003F004033A
:100EF0000393039BC023339302233493002335933E
:100F000036930723379333A9074801F081FE9FE703
:100F1000FFF705FCD5E700BF0010014000140140B9
:100F2000004402580000025800080258FEE7FEE79D
:100F3000FEE7FEE7FEE7704708B501F0FFFF05F0AA
:100F4000FBF9012800D108BD05F01CFFFBE70000FC
:100F500008B5024802F082FC08BD00BFF002002084
:100F600008B5024802F07AFC08BD00BF90030020DB
:100F700008B5024802F086FE08BD00BF300400201C
:100F800008B5024802F07EFE08BD00BF7C040020C8
:100F900000B583B00A4BD3F8F42042F00202C3F844
:100FA000F420D3F8F43003F002030193019B0022F4
:100FB0000F216FF0010000F017F803B05DF804FB9B
:100FC000004402580649CB6823F4E0631B041B0C61
:100FD000000200F4E0600343024A1A43CA6070470B
:100FE00000ED00E00000FA0500B5174BDB68C3F325
:100FF0000223C3F1070CBCF1040F28BF4FF0040C0F
:1010000003F1040EBEF1060F14D9033B4FF0FF3E6F
:101010000EFA0CFC21EA0C0199400EFA03F322EAC5
:1010200003031943002807DB0901C9B2074B195410
:101030005DF804FB0023E9E700F00F000901C9B2E5
:10104000034B1954F4E700BF00ED00E000E400E0BA
:1010500014ED00E0002807DB00F01F024009012327
:101060009340024A42F82030704700BF00E100E0A0
:101070000138B0F1807F0BD24FF0E0235861054A70
:10108000F02182F823100020986107221A6170472E
:101090000120704700ED00E0002800F0188338B50B
:1010A0000446036813F0010F25D0944A136903F036
:1010B0003803926A102B15D0182B0FD06368B3F544
:1010C000803F3FD0002B53D18C4B1A6822F48032E2
:1010D0001A601A6822F480221A6038E002F00302D3
:1010E000022AEBD1854B1B6813F4003F03D06368E1
:1010F000002B00F0EE82236813F0020F00F0A180B5
:101100007E4A1369926A13F038035AD0182B55D0CF
:10111000E368002B00F0DE8078490A6822F01902AB
:1011200013430B6001F016FF0546744B1B6813F068
:10113000040F40F0AD8001F00DFF401B0228F4D9F0
:101140000320CDE26D4A136843F480331360636873
:101150002BB301F0FFFE0546684B1B6813F4003FFC
:10116000C9D101F0F7FE401B6428F5D90320B7E28E
:10117000B3F5A02F09D0614B1A6822F480321A60AF
:101180001A6822F480221A60E1E75C4B1A6842F484
:1011900080221A601A6842F480321A60D7E701F0A0
:1011A000D9FE0546554B1B6813F4003FA3D001F050
:1011B000D1FE401B6428F5D9032091E212F0030F01
:1011C000A6D14E4B1B6813F0040F03D0E368002B2D
:1011D00000F08182494A136823F01903E1680B4348
:1011E000136001F0B7FE0546444B1B6813F0040F73
:1011F00006D101F0AFFE401B0228F5D903206FE2B3
:1012000001F0AEFE41F20303984212D82269402A4F
:1012100007D03A494B6823F47C3343EA02334B60EE
:101220000FE0364A536823F47C3343F400335360B1
:1012300007E0324A536823F0FE43216943EA016321
:101240005360236813F0100F00F088802B4A136955
:1012500003F03803926A082B56D0182B50D0E3695C
:10126000002B00F0B880254A136843F08003136018
:1012700001F070FE0546214B1B6813F4807F40F09F
:10128000888001F067FE401B0228F4D9032027E282
:1012900001F066FE41F20303984212D82269402A07
:1012A00007D016494B6823F47C3343EA02334B6082
:1012B000C7E7124A536823F47C3343F40033536086
:1012C000BFE70E4A536823F0FE43216943EA0163F6
:1012D0005360B6E7094A136823F00103136001F075
:1012E00039FE0546054B1B6813F0040FA9D001F029
:1012F00031FE401B0228F5D90320F1E100440258D9
:1013000002F00302012AAAD1A14B1B6813F4807FCB
:1013100003D0E369802B40F0E08101F021FE41F22F
:101320000303984212D8226A202A07D098494B68B2
:1013300023F0F84343EA82634B600FE0944A53681A
:1013400023F0F84343F08043536007E0904AD368AA
:1013500023F07C53216A43EA0163D360236813F0CE
:10136000080F60D06369002B49D0894A536F43F05E
:101370000103536701F0EEFD0546854B5B6F13F0EB
:10138000020F50D101F0E6FD401B0228F5D90320E1
:10139000A6E101F0E5FD41F20303984212D8226A6A
:1013A000202A07D07A494B6823F0F84343EA826346
:1013B0004B60D3E7764A536823F0F84343F0804309
:1013C0005360CBE7724AD36823F07C53216A43EA27
:1013D0000163D360C2E76E4A136823F08003136091
:1013E00001F0B8FD05466A4B1B6813F4807FB5D049
:1013F00001F0B0FD401B0228F5D9032070E1644ADA
:10140000536F23F00103536701F0A4FD0546604BC1
:101410005B6F13F0020F06D001F09CFD401B022809
:10142000F5D903205CE1236813F0200F29D0A369CC
:101430009BB1574A136843F48053136001F08AFD4F
:101440000546534B1B6813F4005F1AD101F082FD6F
:10145000401B0228F5D9032042E14D4A136823F4CA
:101460008053136001F076FD0546494B1B6813F469
:10147000005F06D001F06EFD401B0228F5D9032065
:101480002EE1236813F0040F21D1636A002B00F0D2
:1014900026813F4A126902F03802182A00F0EE80D5
:1014A000022B79D03A4A136823F08073136001F05D
:1014B00051FD0446364B1B6813F0007F00F0DC80C2
:1014C00001F048FD001B0228F4D9032008E1314A4D
:1014D000136843F48073136001F03CFD05462D4B07
:1014E0001B6813F4807F06D101F034FD401B642893
:1014F000F5D90320F4E0A368012B0AD00BBB244BE1
:101500001A6F22F001021A671A6F22F004021A679A
:1015100004E01F4A136F43F001031367A36833B35A
:1015200001F018FD05461A4B1B6F13F0020FACD1EA
:1015300001F010FD401B41F288339842F3D903209B
:10154000CEE0052B09D0124B1A6F22F001021A6768
:101550001A6F22F004021A67E0E70D4B1A6F42F08F
:1015600004021A671A6F42F001021A67D6E701F007
:10157000F1FC0546064B1B6F13F0020F85D001F0FE
:10158000E9FC401B41F288339842F3D90320A7E0DD
:101590000044025800480258594A136823F08073E7
:1015A000136001F0D7FC0546554B1B6813F0007F14
:1015B00006D001F0CFFC401B0228F5D903208FE0B4
:1015C0004F4B996A4F4A0A40A16AE06A41EA00110A
:1015D0000A439A62226B013AC2F30802616B013935
:1015E000490289B20A43A16B0139090401F4FE01E1
:1015F0000A43E16B0139090601F0FE410A431A630F
:10160000DA6A22F00102DA62596B3F4A0A40A16CA1
:1016100042EAC1025A63DA6A22F00C02216C0A43E0
:10162000DA62DA6A22F00202616C0A43DA62DA6A8A
:1016300042F48032DA62DA6A42F40032DA62DA6A5A
:1016400042F48022DA62DA6A42F00102DA621A684F
:1016500042F080721A6001F07DFC0446284B1B6842
:1016600013F0007F06D101F075FC001B0228F5D9AC
:10167000032035E0002033E0002031E0204A916A69
:10168000106B012B2DD001F00303A26A93422AD1E3
:10169000C1F30511E36A994227D1C0F30802236B15
:1016A000013B9A4223D1C0F34622636B013B9A422D
:1016B0001FD1C0F30642A36B013B9A421BD1C0F37A
:1016C0000660E36B013B984217D1002008E001203F
:1016D0007047012004E0012002E0012000E000202A
:1016E00038BD0120FCE70120FAE70120F8E70120DE
:1016F000F6E70120F4E70120F2E70120F0E700BF60
:10170000004402580CFCFFFF0700FFFF744B1B69ED
:1017100003F03803102B00F0DE80182B10D00BB133
:10172000704870476E4B1B6813F0200F00F0D58097
:101730006B4B1868C0F3C1006B4B23FA00F0704785
:1017400010B4674A916A01F00301946AC4F305106A
:10175000D36A03F0010C536BC3F3CC030CFB03F30C
:1017600007EE903AF8EE677A14F47C7F00F09380ED
:10177000012965D0022900F09180E1B107EE100A3D
:10178000F8EE476A9FED596A86EE267A544B1B6B3A
:10179000C3F3080306EE903AF8EE666A9FED546ACA
:1017A00067EE867A76EEA77AF7EE006A77EEA67A8B
:1017B00027EE277A60E0136813F0200F23D011463C
:1017C0001268C2F3C102484BD34007EE103AF8EE5C
:1017D000476A07EE100AB8EE476A86EE867A0B6B08
:1017E000C3F3080306EE903AF8EE666A9FED406A8E
:1017F00067EE867A76EEA77AF7EE006A77EEA67A3B
:1018000027EE277A38E007EE100AF8EE476A9FEDD8
:10181000396A86EE267A324B1B6BC3F3080306EE59
:10182000903AF8EE666A9FED326A67EE867A76EE57
:10183000A77AF7EE006A77EEA67A27EE277A1BE002
:1018400007EE100AF8EE476A9FED286A86EE267AC0
:10185000234B1B6BC3F3080306EE903AF8EE666A5F
:101860009FED236A67EE867A76EEA77AF7EE006A36
:1018700077EEA67A27EE277A194B1B6BC3F3462324
:10188000013307EE903AF8EE677AC7EE276AFCEE6E
:10189000E67A17EE900A5DF8044B704707EE100ADF
:1018A000F8EE476A9FED146A86EE267A0C4B1B6BA6
:1018B000C3F3080306EE903AF8EE666A9FED0C6AF1
:1018C00067EE867A76EEA77AF7EE006A77EEA67A6A
:1018D00027EE277AD0E7094870470348704700BFD2
:1018E0000044025800093D000090D0030024744ACF
:1018F000000000390024744C20BCBE4B40787D01B0
:10190000002800F0328170B50D4604469B4B1B68E1
:1019100003F00F038B420BD2984A136823F00F0396
:101920000B431360136803F00F038B4240F01F81D9
:10193000236813F0040F0CD02269914B9B6903F0CC
:1019400070039A4205D98E498B6923F070031A43BC
:101950008A61236813F0080F0CD06269884BDB6939
:1019600003F070039A4205D98549CB6923F07003CF
:101970001A43CA61236813F0100F0CD0A269804B80
:10198000DB6903F4E0639A4205D97D49CB6923F40E
:10199000E0631A43CA61236813F0200F0CD0E26998
:1019A000774B1B6A03F070039A4205D974490B6A9E
:1019B00023F070031A430A62236813F0020F0CD05D
:1019C000E2686F4B9B6903F00F039A4205D96C499B
:1019D0008B6923F00F031A438A61236813F0010F08
:1019E00041D0674A936923F47063A1680B43936104
:1019F0006368022B0AD0032B27D0012B2CD0604A1E
:101A0000126812F0040F06D10120ADE0126812F442
:101A1000003F00F0AE805A490A6922F007021343E2
:101A20000B6101F097FA0646554B1B6903F038032A
:101A30006268B3EBC20F16D001F08CFA801B41F242
:101A400088339842F0D903208EE04D4A126812F094
:101A5000007FE0D1012087E0494A126812F4807FBC
:101A6000D9D1012080E0236813F0020F0CD0E26886
:101A7000434B9B6903F00F039A4205D240498B699F
:101A800023F00F031A438A613C4B1B6803F00F03DA
:101A9000AB420AD9394A136823F00F032B43136072
:101AA000136803F00F03AB4265D1236813F0040FF2
:101AB0000CD02269324B9B6903F070039A4205D225
:101AC0002F498B6923F070031A438A61236813F04E
:101AD000080F0CD062692A4BDB6903F070039A424D
:101AE00005D22749CB6923F070031A43CA612368E2
:101AF00013F0100F0CD0A269214BDB6903F4E063F3
:101B00009A4205D21E49CB6923F4E0631A43CA61A5
:101B1000236813F0200F0CD0E269194B1B6A03F005
:101B200070039A4205D216490B6A23F070031A43D8
:101B30000A62FFF7EBFD12498B69C3F30323114AD5
:101B4000D35C03F01F03D8408B6903F00F03D35C11
:101B500003F01F0320FA03F30B4A13600B4B1860CA
:101B60000B4B186801F094F970BD012070470120FB
:101B7000FAE70120F8E70120F6E700BF0020005255
:101B8000004402585C7E00087800002074000020A9
:101B90007000002008B5FFF7B9FD0B4A9369C3F345
:101BA00003230A49CB5C03F01F0320FA03F3926975
:101BB00002F00F02885C00F01F0023FA00F0044AD4
:101BC0001060044A136008BD004402585C7E00089F
:101BD000780000207400002008B5FFF7DBFF054BFC
:101BE000DB69C3F30213044AD35C03F01F03D8403C
:101BF00008BD00BF004402585C7E000808B5FFF72E
:101C0000C9FF054BDB69C3F30223044AD35C03F02D
:101C10001F03D84008BD00BF004402585C7E000886
:101C2000404B9B6A03F00303032B79D070B5054644
:101C30000E463C4A136823F08063136001F08AF972
:101C40000446384B1B6813F0006F06D001F082F990
:101C5000031B022BF5D9032070BD324B9A6A22F484
:101C60007C32296842EA01329A626A68013AC2F318
:101C70000802A9680139490289B20A43E9680139B1
:101C8000090401F4FE010A4329690139090601F03A
:101C9000FE410A439A63DA6A22F0C00269690A4384
:101CA000DA62DA6A22F02002A9690A43DA62DA6AA1
:101CB00022F01002DA62D96B1B4A0A40E96942EA53
:101CC000C102DA63DA6A42F01002DA62C6B91A4671
:101CD000DB6A43F40023D362124A136843F0806343
:101CE000136001F037F904460E4B1B6813F0006FC8
:101CF00014D101F02FF9001B0228F5D90320ABE71E
:101D0000012E05D0074AD36A43F40013D362E3E7F8
:101D1000044AD36A43F48013D362DDE700209BE7D3
:101D200001207047004402580700FFFF404B9B6AA8
:101D300003F00303032B79D070B505460E463C4AE9
:101D4000136823F08053136001F004F90446384B04
:101D50001B6813F0005F06D001F0FCF8031B022B98
:101D6000F5D9032070BD324B9A6A22F07C72296843
:101D700042EA01529A626A68013AC2F30802A9680B
:101D80000139490289B20A43E9680139090401F4B9
:101D9000FE010A4329690139090601F0FE410A439F
:101DA0001A64DA6A22F4406269690A43DA62DA6A1A
:101DB00022F40072A9690A43DA62DA6A22F48072B4
:101DC000DA62596C1B4A0A40E96942EAC1025A6464
:101DD000DA6A42F48072DA62C6B91A46DB6A43F400
:101DE0008003D362124A136843F08053136001F0FA
:101DF000B1F804460E4B1B6813F0005F14D101F0DC
:101E0000A9F8001B0228F5D90320ABE7012E05D065
:101E1000074AD36A43F08073D362E3E7044AD36A84
:101E200043F40003D362DDE700209BE70120704705
:101E3000004402580700FFFFF8B50446036813F09A
:101E4000006F30D0436EB3F5001F26D00ED8EBB133
:101E5000B3F5801F07D102210430FFF7E1FE0546EC
:101E600045B12E4621E0012635461EE0B3F5401F60
:101E700009D10025954A136D23F44013616E0B437D
:101E80001365002611E0012635460EE08F4AD36A1D
:101E900043F40033D3620025ECE702212430FFF73E
:101EA00045FF0546DCE700263546236813F4807FAE
:101EB00014D0636D042B30D8DFE803F00322280828
:101EC0000800824AD36A43F40033D36245BB7F4A99
:101ED000136D23F00703616D0B431365236813F43F
:101EE000007F2FD0A36D802B49D01ED8002B40D06F
:101EF000402B17D10021201DFFF792FE054619E067
:101F00000021201DFFF78CFE0546DFE7002104F1CC
:101F10002400FFF70BFF0546D8E701263546DDE72D
:101F20002E46DBE7012635460CE0C02B02D0B3F588
:101F3000807F1BD155BB654A136D23F4E073A16DFF
:101F40000B431365236813F4806F45D0D4F8A43095
:101F5000B3F5800F38D01ED883B3B3F5001F17D167
:101F60000021201DFFF75CFE05461AE001263546DC
:101F7000E8E7564AD36A43F40033D362DAE7002134
:101F800004F12400FFF7D2FE0546D3E72E46D9E739
:101F90000126354620E0B3F5C00F02D0B3F5000F9F
:101FA00009D1C5B9494A936D23F46003D4F8A4104C
:101FB0000B43936510E0012635460DE0434AD36A92
:101FC00043F40033D362ECE7002104F12400FFF76F
:101FD000ADFE0546E5E72E46236813F4006F23D0D7
:101FE000D4F8A830B3F1007F41D00DD8002B38D001
:101FF000B3F1807F05D10021201DFFF711FE0546BA
:1020000008E0012635460FE0B3F1407F02D0B3F17E
:10201000806F23D1002D31D12C4A936D23F0E063E2
:10202000D4F8A8100B439365236813F0007F2ED0DB
:10203000A36C202B3FD026D833B1102B20D1234ABC
:10204000D36A43F40033D362002D3AD11F4AD36CD4
:1020500023F03003A16C0B43D36418E0012635460E
:10206000E2E71A4AD36A43F40033D362D2E700218D
:1020700004F12400FFF75AFE0546CBE72E46D3E7CE
:102080000126354603E0302BDED001263546236895
:1020900013F4805F2BD0E36DB3F5005F4CD017D8FD
:1020A000002B43D0B3F5805F0DD10021201DFFF739
:1020B000B7FD054612E00221201DFFF7B1FD0546E0
:1020C000C2E72E46E3E70126354610E000440258F9
:1020D000B3F5405F02D0B3F5804F24D1002D32D14B
:1020E000754A136D23F4E043E16D0B4313652368D8
:1020F00013F4005F37D0236EB3F5003F51D027D8DB
:102100003BB1B3F5803F20D10121201DFFF788FDB1
:102110000546002D4CD1684A136D23F4E023216E4F
:102120000B4313651FE001263546E0E7624AD36A98
:1021300043F40033D362D1E7002104F12400FFF718
:10214000F5FD0546CAE72E46D1E7012635460AE0E9
:10215000B3F5802FDDD0B3F5A02FDAD0B3F5403F33
:10216000D7D001263546236813F4804F30D0D4F8F9
:10217000AC30B3F1005F44D01FD83BB1B3F1805F06
:1021800018D10121201DFFF74BFD0546002D3FD141
:10219000494A936D23F0E043D4F8AC100B439365A8
:1021A00016E0012104F12400FFF7C0FD0546B0E769
:1021B0002E46D8E7012635460AE0B3F1804FE5D038
:1021C000B3F1A04FE2D0B3F1405FDFD00126354636
:1021D000236813F4004F09D0E36EB3F1805F19D088
:1021E000B3F1005F24D0D3B101263546236813F044
:1021F000807F32D0636C032B59D8DFE803F02621AF
:102200005226012104F12400FFF790FD0546BDE7A9
:102210002E46DDE7284AD36A43F40033D3626DB912
:10222000254A136D23F04053E16E0B431365DDE740
:102230000121201DFFF7F4FC0546F0E72E46D5E707
:102240001D4AD36A43F40033D3629DBB1A4AD36C50
:1022500023F00303616C0B43D364236813F4800FF2
:102260002CD1236813F0010F00F0A380A36F282B5B
:1022700000F29D80DFE803F08B9B9B9B9B9B9B9BCD
:10228000869B9B9B9B9B9B9B949B9B9B9B9B9B9BBA
:102290008B9B9B9B9B9B9B9B8B9B9B9B9B9B9B9BAE
:1022A0008B000221201DFFF7BBFC0546CDE7012670
:1022B0003546D2E72E46D0E7004402588F4A1368CD
:1022C00043F48073136000F045FE07468B4B1B6898
:1022D00013F4807F05D100F03DFEC01B6428F5D9C2
:1022E0000325002D4AD1864B1B6FD4F8B0205340F4
:1022F00013F4407F0CD0824B1A6F22F44072196F96
:1023000041F480311967196F21F4803119671A6718
:10231000D4F8B030B3F5807F15D08DBBD4F8B03091
:1023200003F44072B2F5407F1ED0754A136923F45E
:102330007C53136172490B6FD4F8B020C2F30B02C7
:1023400013430B678DE700F005FE07466C4B1B6FD0
:1023500013F0020FE1D100F0FDFDC01B41F2883304
:102360009842F3D90325D8E76548026922F47C52E4
:10237000644901EA131313430361DBE72E4670E758
:102380002E466EE70121201DFFF74AFC0546E5B900
:102390005B4A536D23F03803A16F0B43536508E08C
:1023A000012104F12400FFF7C1FC0546EFE70126F7
:1023B0003546236813F0020F16D0636F052B27D81C
:1023C000DFE803F00A051F0A0A0A2E46F1E7012199
:1023D000201DFFF725FC0546EDB9494A536D23F052
:1023E0000703616F0B435365236813F0040F22D07A
:1023F000D4F89030052B43D8DFE803F0140F3B14DA
:102400001414012104F12400FFF790FC0546E3E7D2
:1024100001263546E8E72E46E6E70121201DFFF7B5
:10242000FFFB05467DBB364A936D23F00703D4F8C6
:1024300090100B439365236813F0200F33D0D4F82A
:102440008C30B3F1005F4CD022D83BB1B3F1805F48
:102450001BD10021201DFFF7E3FB0546002D47D1CE
:10246000274A536D23F0E043D4F88C100B43536597
:1024700019E0012104F12400FFF758FC0546D1E7DB
:1024800001263546D7E72E46D5E7012635460AE030
:10249000B3F1804FE2D0B3F1A04FDFD0B3F1405F92
:1024A000DCD001263546236813F0400F37D0D4F82E
:1024B0009830B3F5006F52D026D83BB1B3F5806F9A
:1024C00018D10021201DFFF7ABFB0546002D4DD193
:1024D0000B4A936D23F4E053D4F898100B439365A3
:1024E0001DE0022104F12400FFF720FC0546B5E7BA
:1024F0002E46D8E70126354611E000BF00480258B5
:1025000000440258CFFFFF00B3F5805FDED0B3F583
:10251000A05FDBD0B3F5406FD8D0012635462368E5
:1025200013F0800F32D0D4F89C30B3F5804F00F018
:102530009D8020D83BB1B3F5005F19D10021201D4B
:10254000FFF76EFB0546002D40F09780A54A936D7E
:1025500023F46043D4F89C100B43936516E00221EA
:1025600004F12400FFF7E2FB0546AFE72E46D6E76D
:10257000012635460AE0B3F5004FE4D0B3F5204F0D
:10258000E1D0B3F5C04FDED001263546236813F005
:10259000080F0CD0D4F88030B3F5805F6FD0914A2B
:1025A000536D23F44053D4F880100B4353652368D4
:1025B00013F0100F0CD0D4F89430B3F5807F67D0AF
:1025C000884A936D23F44073D4F894100B439365B9
:1025D000236813F4002F0BD0D4F8A030B3F5803F5C
:1025E0006ED0B3F5003F61D0002B5AD0012635469E
:1025F000236813F4802F0CD0D4F88430B3F5001F77
:1026000076D0B3F5401F69D0B3F5801F61D00126A5
:102610003546236813F4803F07D0E36C002B70D05D
:10262000B3F5803F7BD001263546236813F0005F69
:102630007DD1236813F4003F00F08680E36FB3F58B
:10264000807F00F0C6807CD9B3F5007F03D0B3F55E
:10265000407F40F0BC80002D40F0C180614A536D46
:1026600023F44073E16F0B4353656DE0022104F1E5
:102670002400FFF75BFB054665E72E4686E702214F
:1026800004F12400FFF752FB002888D0012686E7DA
:10269000022104F12400FFF749FB002890D0012615
:1026A0008EE70021201DFFF7BBFA05467DB94D4A94
:1026B000936D23F44033D4F8A0100B43936597E750
:1026C000022104F12400FFF731FB0546EEE72E4618
:1026D0008EE7444AD36A43F40033D3627DB9414A5A
:1026E000536D23F44013D4F884100B43536590E7E3
:1026F000012104F12400FFF719FB0546EEE72E4601
:1027000087E7384AD36A43F40033D3626DB9354A58
:10271000D36C23F48033E16C0B43D36485E702214F
:10272000201DFFF77DFA0546F0E72E467DE70221E2
:1027300004F12400FFF7FAFA00283FF47AAF0126EB
:1027400077E7002B87D00126236813F4801F06D07B
:10275000244A136D23F00043216F0B431365236854
:1027600013F0805F07D01F4A136923F48043D4F825
:10277000B4100B431361236813F4001F06D0194AE9
:10278000136D23F08073A16E0B431365236813F060
:10279000804F09D0134B1A6922F400421A611A695A
:1027A000D4F8B8100A431A612368002B1CDB236895
:1027B00013F4000F07D00B4A536D23F44003D4F8F1
:1027C00088100B43536506B101263046F8BD01263B
:1027D000BAE7044AD36A43F40033D3623BE72E4698
:1027E000B2E700BF00440258034AD36C23F04053C1
:1027F000216D0B43D364DAE70044025808B5FFF7B4
:10280000C9F9054B1B6AC3F30213044AD35C03F0F6
:102810001F03D84008BD00BF004402585C7E00087A
:1028200010B5774A916A946AC4F3053ED36AC3F33C
:10283000001CD36BC3F3CC030CFB03F314F47C3FF9
:1028400000F0D88001F0030107EE903AF8EE677AC5
:10285000012965D0022900F0B080E1B107EE10EA4D
:10286000B8EE477A9FED676AC6EE076A644B9B6BCA
:10287000C3F3080307EE103AB8EE477A9FED626A99
:1028800067EE867A77EE277AB7EE007A77EE877A68
:1028900066EEA76A60E0136813F0200F23D011469C
:1028A0001268C2F3C102594BD34007EE103AB8EE9A
:1028B000477A06EE90EAB8EE666AC7EE066A8B6B58
:1028C000C3F3080307EE103AB8EE477A9FED4E6A5D
:1028D00067EE867A77EE277AB7EE007A77EE877A18
:1028E00066EEA76A38E007EE10EAB8EE477A9FED89
:1028F000486AC6EE076A424B9B6BC3F3080307EEB8
:10290000103AB8EE477A9FED406A67EE867A77EE26
:10291000277AB7EE007A77EE877A66EEA76A1BE031
:1029200007EE10EAB8EE477A9FED366AC6EE076A00
:10293000334B9B6BC3F3080307EE103AB8EE477AAC
:102940009FED316A67EE867A77EE277AB7EE007AE6
:1029500077EE877A66EEA76A294A936BC3F346231C
:1029600007EE103AB8EE477AB7EE006A37EE067A0D
:10297000C6EE877AFCEEE77AC0ED007A936BC3F37C
:10298000064307EE103AB8EE477A37EE067AC6EEFF
:10299000877AFCEEE77AC0ED017A936BC3F30663A6
:1029A00007EE903AF8EE677A77EE867A86EEA77AA7
:1029B000BCEEC77A80ED027A10BD07EE10EAB8EEE1
:1029C000477A9FED146AC6EE076A0D4B9B6BC3F303
:1029D000080307EE103AB8EE477A9FED0B6A67EEF0
:1029E000867A77EE277AB7EE007A77EE877A66EE08
:1029F000A76AB1E70023036043608360DCE700BFA0
:102A0000004402580024744A000000390090D003AA
:102A10000024744C20BCBE4B10B5774A916A946A6E
:102A2000C4F3055ED36AC3F3002C536CC3F3CC0329
:102A30000CFB03F314F07C7F00F0D88001F003015D
:102A400007EE903AF8EE677A012965D0022900F086
:102A5000B080E1B107EE10EAB8EE477A9FED676A01
:102A6000C6EE076A644B1B6CC3F3080307EE103A0B
:102A7000B8EE477A9FED626A67EE867A77EE277A3C
:102A8000B7EE007A77EE877A66EEA76A60E01368A1
:102A900013F0200F23D011461268C2F3C102594B24
:102AA000D34007EE103AB8EE477A06EE90EAB8EE59
:102AB000666AC7EE066A0B6CC3F3080307EE103AAA
:102AC000B8EE477A9FED4E6A67EE867A77EE277A00
:102AD000B7EE007A77EE877A66EEA76A38E007EEFF
:102AE00010EAB8EE477A9FED486AC6EE076A424B95
:102AF0001B6CC3F3080307EE103AB8EE477A9FED5C
:102B0000406A67EE867A77EE277AB7EE007A77EE3C
:102B1000877A66EEA76A1BE007EE10EAB8EE477AFE
:102B20009FED366AC6EE076A334B1B6CC3F308038E
:102B300007EE103AB8EE477A9FED316A67EE867A73
:102B400077EE277AB7EE007A77EE877A66EEA76A95
:102B5000294A136CC3F3462307EE103AB8EE477ABE
:102B6000B7EE006A37EE067AC6EE877AFCEEE77AB1
:102B7000C0ED007A136CC3F3064307EE103AB8EECB
:102B8000477A37EE067AC6EE877AFCEEE77AC0ED32
:102B9000017A136CC3F3066307EE903AF8EE677A96
:102BA00077EE867A86EEA77ABCEEC77A80ED027A57
:102BB00010BD07EE10EAB8EE477A9FED146AC6EE34
:102BC000076A0D4B1B6CC3F3080307EE103AB8EE0F
:102BD000477A9FED0B6A67EE867A77EE277AB7EE33
:102BE000007A77EE877A66EEA76AB1E70023036082
:102BF00043608360DCE700BF004402580024744A4D
:102C0000000000390090D0030024744C20BCBE4B5F
:102C1000F0B583B000236BE085685E000324B44008
:102C200025EA0405CC68B4402C438460446824EA57
:102C30000C0C4C68C4F300149C4044EA0C0444603F
:102C400068E0DD08083550F8256003F007044FEA16
:102C5000840C0F2404FA0CF426EA040E0C6904FA1E
:102C60000CF444EA0E0440F825406BE0092400E02F
:102C7000002404FA0EF42C430CF1020C694D45F8C3
:102C80002C404FF0B0442568D44325EA02064F6833
:102C900017F4801F01D042EA05064FF0B0452E60C0
:102CA0006D6804EA05064F6817F4001F01D042EA78
:102CB00005064FF0B0456E60D5F8845004EA05066D
:102CC0004F6817F4003F01D042EA05064FF0B045C7
:102CD000C5F88460D5F880502C404E6816F4803FCB
:102CE00001D042EA05044FF0B042C2F880400133FF
:102CF0000A6832FA03F400F092804FF0010C0CFAEB
:102D000003FC1CEA0202F2D04C6804F00304013C0C
:102D1000012C81D94C6804F00304032C0CD0C46846
:102D20005D004FF0030C0CFA05FC24EA0C0C8C68D7
:102D3000AC4044EA0C04C4604C6804F00304022C68
:102D40003FF47FAF04684FEA430E4FF0030C0CFAD8
:102D50000EFC24EA0C0C4C6804F0030404FA0EF494
:102D600044EA0C0404604C6814F4403FBFD02E4C7D
:102D7000D4F8F45045F00205C4F8F450D4F8F44007
:102D800004F002040194019C4FEA930C0CF102053B
:102D9000244C54F8255003F003044FEA840E0F240A
:102DA00004FA0EF425EA0405204CA0423FF460AF7B
:102DB00004F58064A04222D004F58064A04220D0B3
:102DC00004F58064A0421ED004F58064A0421CD0AB
:102DD00004F58064A0421AD004F58064A04218D0A3
:102DE00004F58064A04216D004F58064A04214D09B
:102DF00004F58064A0423FF439AF0A2439E7012486
:102E000037E7022435E7032433E7042431E70524B8
:102E10002FE706242DE707242BE7082429E703B032
:102E2000F0BD00BF000400580044025800000258E2
:102E30000AB181617047090481617047134BDB68F7
:102E400013F0040F07D1114BDB6803F00703834233
:102E50001AD00120704710B50C4AD36823F007033D
:102E60001843D06000F076F80446084B5B6813F412
:102E7000005F07D100F06EF8001BB0F57A7FF4D93F
:102E8000012000E0002010BD0020704700480258DB
:102E9000104B1B780BB90120704710B504464FF456
:102EA0007A70B0FBF3F30C4A1068B0FBF3F0FEF756
:102EB000DFF868B90F2C01D901200AE00022214671
:102EC0004FF0FF30FEF790F8044B1C60002000E04C
:102ED000012010BD6C000020740000207000002054
:102EE00010B50320FEF76EF8FEF710FC0F498B6952
:102EF000C3F303230E4AD35C03F01F03D8408B694E
:102F000003F00F03D35C03F01F0320FA03F3094A15
:102F10001360094B18600F20FFF7BAFF10B10124AE
:102F2000204610BD0446FEF733F8F9E70044025886
:102F30005C7E00087800002074000020034B1B78A2
:102F4000034A11680B441360704700BF6C000020F7
:102F5000E8050020014B1868704700BFE805002015
:102F6000014B1868000C70470010005C30B4446BD3
:102F70000368D3F884106F4A114041EA8401C3F812
:102F800084100368D3F8841021F47F01856B41EA33
:102F90000541C3F88410836B23440468D4F8881077
:102FA000114041EA8301C4F888100468D4F88810FD
:102FB00021F4FE01C56B41EA0541C4F88810C16BDC
:102FC00003EB41030468D4F8A010114041EA8301E7
:102FD000C4F8A0100468D4F8A01021F4FE01056C18
:102FE00041EA0541C4F8A010016C446C04FB0133B4
:102FF0000468D4F8B010114041EA8301C4F8B0105D
:103000000468D4F8B01021F4FE01856C41EA054152
:10301000C4F8B010816CC46C04FB01330468D4F8AC
:10302000AC10114041EA8301C4F8AC10016D446D4D
:1030300004FB01330468D4F8F010114041EA830125
:10304000C4F8F0100468D4F8F01021F47C11856DF8
:1030500041EA0541C4F8F010816D03EB41030468B7
:10306000D4F8C0100A4042EA8303C4F8C0300268B2
:10307000D2F8C03023F47C13C16D43EA0143C2F897
:10308000C0300268D2F8C03023F07C53016E43EAAE
:103090000163C2F8C030436B274A1A449200C266EB
:1030A000836B02EB83030367C16B03EBC1034367CD
:1030B000016C446C04FB01F103EB81038367816CB9
:1030C000C46C04FB01F103EB8103C367016D446D24
:1030D00004FB01F103EB8103C0F88030816D03EB49
:1030E000C103C0F88430816EC46D01FB04FC03EBA6
:1030F0008C03C0F88830046E04FB01F103EB8103FC
:10310000C0F890300D498B420DD9D0F89C3043F077
:103110002003C0F89C30032380F89830012007E09A
:10312000002342F8043BD0F890309342F8D80020B6
:1031300030BC70470300FFFF002B0010FCD30040A1
:1031400070B54C68F4B90D698C6825430C6845EA84
:1031500084450E6ACC6944EA06648E6934434E693C
:103160003443CE683443D0F88460806E00FB03F3B0
:1031700006EB830E46F82350CEF804400EF1080EFD
:10318000002019E00C698D6825430C68254345F043
:103190008045DEE702EB000C9CF803409CF802300F
:1031A0001B0443EA04639CF8014043EA0423145CD3
:1031B00023434EF8043B0430CB89024CE35C83424A
:1031C000E8D870BD247E000830B595B004464C2286
:1031D000A04901A804F0CEF8002C00F03881236843
:1031E0009D4A934220D094F898300BB3226893699B
:1031F00023F010039361FFF7ADFE054623689A693B
:1032000012F0080F1AD0FFF7A5FE431B0A2BF5D9C1
:10321000D4F89C3043F00103C4F89C30032384F8B5
:103220009830012015B030BD03F580736360DAE794
:1032300084F899302046FDF737FCD7E79A6942F0C9
:1032400001029A61FFF786FE054623689A6912F02B
:10325000010F0FD1FFF77EFE401B0A28F5D9D4F8E5
:103260009C3043F00103C4F89C30032384F8983069
:103270000120D7E79A6942F002029A61237C012B70
:1032800040D02268936943F040039361637C012B33
:103290003ED02268936923F480439361A37C012B81
:1032A0003CD02268936943F4805393612268936908
:1032B00023F44073A1680B4393612268936923F060
:1032C000A40393612268136923F010031361E36878
:1032D000012B29D0002B2CD0022B00F09B802268E0
:1032E000936943F0800393612268136943F01003EC
:1032F0001361E368032B1CD12268936943F0200318
:10330000936116E02268936923F040039361BDE75F
:103310002268936943F480439361BFE7226893690D
:1033200023F480539361C1E72268936943F0040357
:103330009361A3695A1EE369013B1B0243EA42639E
:10334000226A013A13436269013A216843EA02435F
:10335000CB61A368B3F5407F62D0236E33B122689E
:10336000D2F8C030616E0B43C2F8C030E36D226EFC
:10337000D3420DD02168D1F8C83023F00703A26EE4
:1033800014A800EB820252F84C2C1343C1F8C83049
:10339000236C6BB12168D1F8BC3023F00703626C59
:1033A00014A800EB820252F84C2C1343C1F8BC3035
:1033B000A36C73B12168D1F8BC3023F07003E26CC8
:1033C00014A800EB820252F84C2C43EA0213C1F815
:1033D000BC30236D73B12168D1F8BC3023F4E063B5
:1033E000626D14A800EB820252F84C2C43EA0223CF
:1033F000C1F8BC302268184B9A4222D00023C4F88E
:103400009430C4F89C30012384F898302046FFF7AC
:10341000ADFD07E72268936943F02003936188E7D5
:10342000A36A013BE26A013A43EA0223226B013AB2
:1034300043EA0213626A013A216843EA0243CB601D
:103440008BE76268936823F003039360D6E701205B
:10345000E8E600BFD07C000800A0004090F898305B
:10346000013BDBB2012B07D9D0F89C3043F00203BB
:10347000C0F89C3001207047CB680A68D2B9072B8E
:103480000ED08A68DB0643EA82730A6943EA024384
:103490004A691343C26E496842F8213000207047E0
:1034A0000A69CB691B0243EA02438A69134343F06A
:1034B0006053EFE710B40A6942EA4372072B0FD05A
:1034C0004B698C6843EA8473006F496800EBC10C58
:1034D00040F83120CCF8043000205DF8044B7047F0
:1034E0008B69F1E790F89830DBB2012B07D0D0F868
:1034F0009C3043F00403C0F89C3001207047022345
:1035000080F898300268936923F0010393610023E7
:10351000C0F89C301846704790F898C00CF1FF3CFA
:103520005FFA8CFCBCF1010F2DD870B593FAA3F4AF
:10353000A4B1B4FA84F40668D6F8C050C5F3054CBB
:1035400064450DD2D6F8CC401C4211D0D0F89C3046
:1035500043F04003C0F89C30012008E02024EAE753
:10356000D0F89C3043F02003C0F89C30012070BD9F
:1035700093FAA3F32BB1B3FA83F3FFF7E1FD002035
:10358000F5E72023F9E7D0F89C3043F00203C0F8B8
:103590009C300120704790F89830DBB2022B07D0A6
:1035A000D0F89C3043F00803C0F89C3001207047ED
:1035B0000368C3F8D01000207047000090F898C04E
:1035C0005FFA8CFCBCF1020F40F0DE8070B5402940
:1035D0000CD041293BD0046D8C4269D8D0F89C3086
:1035E00043F02003C0F89C300120BFE00468D4F809
:1035F000A05015F4FE0F0CD0D4F8A45015F07F0F96
:103600000FD1D0F89C3043F48073C0F89C30012077
:10361000ACE0D0F89C3043F02003C0F89C3001208F
:10362000A4E0D4F8A450C5F3006615F0807F02D062
:10363000D4F8A0500026D4F8A440C4F305242644AE
:10364000456F446C06FB04F405EB840C37E004681A
:10365000D4F8B05015F4FE0F0CD0D4F8B45015F0D7
:103660007F0F0FD1D0F89C3043F48073C0F89C30AA
:1036700001207BE0D0F89C3043F02003C0F89C3060
:10368000012073E0D4F8B450C5F3006615F0807FD4
:1036900002D0D4F8B0500026D4F8B440C4F30524C6
:1036A0002644856FC46C06FB04F405EB840C06E02D
:1036B000C56F446D01FB04F405EB840C0026DCF8B7
:1036C000004004F08044546074BBDCF80040C4F354
:1036D0008A441460DCF8004004F000549460DCF884
:1036E000004004F000441461BCF80440D461DCF8EC
:1036F000044004F47024D460DCF8044004F4801422
:103700005461DCF8044004F4001494619CF8074010
:1037100004F07F041462DCF80440E40F54620CF1FE
:10372000080E4FF0000C0BE0DCF8004024F0604481
:103730001460CFE71EF80C4003F80C400CF1010CAC
:10374000D489154D2C5D6445F4D840290AD041290F
:103750000DD01F290FD80268012303FA01F1C2F826
:10376000981002E00368C3F8A860002070BD0368E9
:10377000C3F8B860F9E701F01F010268012303FAFA
:1037800001F1C2F89C10F0E7D0F89C3043F0080338
:10379000C0F89C3001207047247E00080368D3F8ED
:1037A000CC00084000D001207047000090F898300D
:1037B000013BDBB2012B07D9D0F89C3043F0020368
:1037C000C0F89C300120704710B403689C6D0C4217
:1037D00024D1DC6D44F00104DC6511F4007F05D0D8
:1037E0000468D4F8E0301343C4F8E03011F4806F7B
:1037F00005D00468D4F8E4301A43C4F8E420006823
:10380000436D0C4A0A40134343650B4A536943EA2C
:103810009171516100205DF8044B70479C6D31EA55
:10382000040402D00324DC65D7E7DC6D44F0020415
:10383000DC65D2E7FFFFCF3F00A80040704770472C
:1038400070477047704770477047704770477047C0
:103850007047704770477047704770472DE9F047D1
:103860000446954B1A695B694FEA837A0AEA827AC1
:1038700003681A6D02F470495A6D09EA02091A6D5B
:1038800002F00F085A6D08EA02081F6D07F0F007F2
:103890005A6D17401D6D05F071555A6D15401E6D1E
:1038A00006F060765A6D16405A6D12F4807F03D090
:1038B0001A6D12F4807F78D123685A6D12F4806FEC
:1038C00003D01A6D12F4806F78D1BAF1000F40F076
:1038D0008480B9F1000F40F08C80B8F1000F40F007
:1038E0009480002F40F09D8023685A6D12F4006F81
:1038F00004D01A6D12F4006F40F09D8023685A6D59
:1039000012F4007F04D01A6D12F4007F40F09D8005
:1039100023685A6D12F4002F04D01A6D12F4002F90
:1039200040F0A28023685A6D12F4803F04D01A6DD3
:1039300012F4803F40F0A28023685A6D12F4802F69
:1039400004D01A6D12F4802F40F0A28023685A6DC3
:1039500012F4003F0FD01A6D12F4003F0BD04FF459
:1039600000321A65544B00221A61D4F89C3043F09F
:103970008003C4F89C30002E40F094804DB1236841
:103980001D65AA0F4C4B1A61D4F89C301D43C4F836
:103990009C502268494B9A4200F09280D4F89C30A7
:1039A000002B40F0ED80BDE8F0874FF480721A657F
:1039B000414B00221A61FFF74AFF7DE7D3F8DC1084
:1039C000D3F8E4204FF4806018653B4B0020186169
:1039D00011402046FFF737FF77E7236800221A657A
:1039E0004FEA9A72344B1A6151462046FFF726FF80
:1039F0006FE72368C3F850904FEA99722E4B1A6113
:103A000049462046FFF71BFF67E72368C3F850804D
:103A10004FEA9872284B1A614146204603F0C0FADB
:103A20005FE723681F65BA0F234B1A6139462046AA
:103A3000FFF706FF58E74FF400621A651E4B00229D
:103A40001A612046FFF7FDFE58E7D3F8D810D3F8E7
:103A5000E0204FF400701865174B002018611140EA
:103A60002046FFF7EFFE53E74FF400221A65124B92
:103A700000221A612046FFF7E7FE53E74FF4803239
:103A80001A650D4B00221A612046FFF7DEFE53E750
:103A90004FF480221A65084B00221A612046FFF776
:103AA000D5FE53E723681E65B20F034B1A613146FA
:103AB0002046FFF7CEFE61E700A8004000A00040CE
:103AC00063689A6812F0030F3FF468AF196A01F057
:103AD0000F015A6A186A00F03008586A08EA0008AC
:103AE0001F6A07F4C077586A07401E6A06F4FC464E
:103AF000586A06401D6A05F4F025586A05401140D1
:103B00001FD1B8F1000F21D163685A6A12F0400F3B
:103B100003D01A6A12F0400F20D157BB36B1636848
:103B20001E62D4F89C301E43C4F89C60002D3FF404
:103B300035AF63681D62D4F89C301D43C4F89C50B7
:103B40002CE719622046FFF785FEDAE76368C3F8C1
:103B5000208041462046FFF77EFED5E7D96BDA6B21
:103B60004020186202F03F02090C2046FFF774FE65
:103B7000D3E763681F6239462046FFF76EFECDE744
:103B80002046FFF765FE0EE710B4036A046A24F0CE
:103B900001040462846924F0F00C4CEA021223F060
:103BA0000A030B43826103625DF8044B704710B453
:103BB000046A24F0100404628469036A24F4704CDB
:103BC0004CEA023223F0A00343EA0113826103624C
:103BD0005DF8044B704700008268034B13400B43B1
:103BE00043F00703836070478FFFCFFF90F83D30AD
:103BF000DBB2012B3AD1022380F83D300268D36852
:103C000043F00103D36003681A4AB3F1804F18BF31
:103C100093421DD0A2F57C42934219D002F58062F6
:103C2000934215D002F58062934211D002F578429A
:103C300093420DD0A2F56C42934209D002F5943222
:103C4000934205D01A6842F001021A6000207047C2
:103C50009968094A0A40062A18BFB2F5803F07D082
:103C60001A6842F001021A60002070470120704774
:103C700000207047000001400700010070477047B6
:103C80007047704710B5044603681A6912F0020FB6
:103C900011D0DA6812F0020F0DD06FF002021A6133
:103CA0000123037703689B6913F0030F79D0FFF7B3
:103CB000E6FF0023237723681A6912F0040F12D05D
:103CC000DA6812F0040F0ED06FF004021A610223BA
:103CD000237723689B6913F4407F68D02046FFF761
:103CE000CEFF0023237723681A6912F0080F12D041
:103CF000DA6812F0080F0ED06FF008021A61042380
:103D000023772368DB6913F0030F57D02046FFF7B2
:103D1000B6FF0023237723681A6912F0100F12D020
:103D2000DA6812F0100F0ED06FF010021A6108233B
:103D300023772368DB6913F4407F46D02046FFF7E2
:103D40009EFF0023237723681A6912F0010F03D026
:103D5000DA6812F0010F3FD123681A6912F0800F60
:103D600003D0DA6812F0800F3DD123681A6912F48B
:103D7000807F03D0DA6812F0800F3BD123681A6984
:103D800012F0400F03D0DA6812F0400F39D12368E7
:103D90001A6912F0200F03D0DA6812F0200F37D121
:103DA00010BDFFF76BFF2046FFF76AFF81E7204653
:103DB000FFF764FF2046FFF763FF92E72046FFF717
:103DC0005DFF2046FFF75CFFA3E72046FFF756FFA5
:103DD0002046FFF755FFB4E76FF001021A61204655
:103DE000FCF76EFCB8E76FF080021A61204600F025
:103DF000C4F9BAE76FF480721A61204600F0BEF988
:103E0000BCE76FF040021A612046FFF73AFFBEE7B9
:103E10006FF020021A61204600F0AEF9C0E7000002
:103E200030B50368394A904214BF4FF0000E4FF08E
:103E3000010EB0F1804F14BF72464EF00102AAB9D4
:103E4000334CA04214BF00240124324DA8420DD0AF
:103E500064B904F1804404F58234A04214BF002404
:103E6000012405F50065A84200D01CB123F07003C1
:103E70004C68234312BB264A904214BF0022012201
:103E8000244CA0421AD0CAB902F1804202F5823213
:103E9000904214BF0022012204F50064A0420DD01C
:103EA00062B91D4A904214BF0022012204F59A34DF
:103EB000A04203D012B9194A904204D123F4407CA5
:103EC000CB6843EA0C0323F080034A691343036081
:103ED0008A68C2620A688262114A904214BF7346BD
:103EE0004EF0010363B90C4B984214BF0023012329
:103EF00002F57052904203D013B9084B984201D199
:103F00000B6903630123436130BD00BF0000014022
:103F10000008004000040040004401400048014007
:103F20000004014060B310B5044690F83D3013B36F
:103F3000022384F83D30214651F8040BFFF770FF4F
:103F4000012384F8483084F83E3084F83F3084F808
:103F5000403084F8413084F8423084F8433084F8AB
:103F6000443084F8453084F8463084F8473084F88B
:103F70003D30002010BD80F83C30FCF7B1FED7E7A3
:103F80000120704710B4846824F47F4C42EA032275
:103F90000A4342EA0C0282605DF8044B704700005D
:103FA00090F83C30012B00F08F8010B504460123BF
:103FB00080F83C30022380F83D3002689068434B23
:103FC000034093600B68702B55D031D8502B6CD0C8
:103FD0000CD9602B2AD1CA6849682068FFF7E7FD31
:103FE00060212068FFF7F8FD002035E0402B0AD162
:103FF000CA6849682068FFF7C7FD40212068FFF7BD
:10400000EBFD002028E05BD8202B07D003D9302B14
:1040100004D0012020E00BB1102B05D119462068F7
:10402000FFF7DAFD002017E0012015E0012013E082
:10403000B3F5005F2CD00BD9254A9342EED012D9AC
:10404000244A9342EAD010329342E7D0012003E0A1
:10405000B3F5805F36D10020012384F83D30002382
:1040600084F83C3010BDB3F5801FD7D0B3F1101FDA
:10407000D4D00120F0E7CB684A6889682068FFF750
:1040800081FF2268936843F0770393600020E3E7A1
:10409000CB684A6889682068FFF774FF22689368D4
:1040A00043F4804393600020D6E7CA6849682068DB
:1040B000FFF76AFD50212068FFF78EFD0020CBE757
:1040C0000120C9E70120C7E7022070478800CEFF22
:1040D000200010003000100090F83C30012B45D03B
:1040E00070B4012380F83C30022380F83D3003682F
:1040F0005A689C681E4E1F4DAB4218BFB34203D195
:1041000022F470024D682A4322F070020D682A439F
:104110005A600368164AB3F1804F18BF934217D014
:10412000A2F57C42934213D002F5806293420FD0F5
:1041300002F5806293420BD002F57842934207D099
:10414000A2F56C42934203D002F59432934204D11B
:1041500024F080048A6814439C60012380F83D3079
:10416000002380F83C30184670BC7047022070472E
:1041700000000140000401407047704770477047DD
:10418000704708B5B0F86030D0F88820222A05D0F2
:104190000268936943F00803936108BD0268516A9D
:1041A000DBB2826D0B401370836D01338365B0F811
:1041B0005E309BB2013B9BB2A0F85E30B0F85E303F
:1041C0009BB2002BE9D1026852E8003F23F49073C0
:1041D00042E800310029F6D1026802F1080353E8F1
:1041E000003F23F00103083242E800310029F3D1F7
:1041F0002023C0F8883000230367C36E012B16D13B
:104200000023C366026852E8003F23F0100342E82F
:1042100000310029F6D10368DA6912F0100F01D0DD
:1042200010221A62B0F85C10FFF7AAFFB5E7FCF79E
:1042300075FAB2E708B5B0F86020D0F88830222BC4
:1042400005D00268936943F00803936108BD0368D1
:104250005B6A816D13400B80836D02338365B0F818
:104260005E309BB2013B9BB2A0F85E30B0F85E308E
:104270009BB2002BEAD1026852E8003F23F490730E
:1042800042E800310029F6D1026802F1080353E840
:10429000003F23F00103083242E800310029F3D146
:1042A0002023C0F8883000230367C36E012B16D18A
:1042B0000023C366026852E8003F23F0100342E87F
:1042C00000310029F6D10368DA6912F0100F01D02D
:1042D00010221A62B0F85C10FFF752FFB6E7FCF745
:1042E0001DFAB3E72DE9F843B0F860600368DD69B3
:1042F000D3F80090D3F80880D0F88820222A05D07F
:104300009A6942F008029A61BDE8F8830446B0F861
:10431000687008E0D4F88C30002B4CD1B4F85E30D3
:104320009BB2002B4ED0002F00F0858015F0200F9F
:1043300000F081802368596AF3B2A26D0B401370BC
:10434000A36D0133A365B4F85E309BB2013B9BB211
:10435000A4F85E302368DD6915F0070FDED015F094
:10436000010F09D019F4807F06D001221A62D4F817
:104370008C301343C4F88C3015F0020F0BD018F0BA
:10438000010F08D0236802221A62D4F88C3043F05F
:104390000403C4F88C3015F0040FBBD018F0010FE3
:1043A000B8D0236804221A62D4F88C3043F0020398
:1043B000C4F88C30AEE72046FFF7E1FE0023C4F8D6
:1043C0008C30ABE7226852E8003F23F4807342E868
:1043D00000310029F6D1226802F1080353E8001FDA
:1043E000264B0B40083242E800310029F3D120234C
:1043F000C4F8883000232367E36E012B03D02046E6
:10440000FCF78CF98FE70023E366226852E8003F4F
:1044100023F0100342E800310029F6D12368DA695D
:1044200012F0100F01D010221A62B4F85C1020466E
:10443000FFF7A6FE77E7B4F85E309BB2002B3FF49F
:1044400063AFB4F868209A427FF65EAF226802F14B
:10445000080353E8003F23F08053083242E800315C
:104460000029F3D1064B2367226852E8003F43F04E
:10447000200342E800310029F6D145E7FEFFFFEFB7
:10448000834100082DE9F843B0F860600368DD69F6
:10449000D3F80090D3F80880D0F88820222A05D0DD
:1044A0009A6942F008029A61BDE8F8830446B0F8C0
:1044B000687008E0D4F88C30002B4AD1B4F85E3034
:1044C0009BB2002B4CD0002F00F0838015F0200F02
:1044D0007FD023685B6AA26D33401380A36D0233E3
:1044E000A365B4F85E309BB2013B9BB2A4F85E308A
:1044F0002368DD6915F0070FE0D015F0010F09D032
:1045000019F4807F06D001221A62D4F88C3013434C
:10451000C4F88C3015F0020F0BD018F0010F08D042
:10452000236802221A62D4F88C3043F00403C4F8E2
:104530008C3015F0040FBDD018F0010FBAD02368ED
:1045400004221A62D4F88C3043F00203C4F88C3091
:10455000B0E72046FFF713FE0023C4F88C30ADE728
:10456000226852E8003F23F4807342E800310029BA
:10457000F6D1226802F1080353E8001F264B0B40D6
:10458000083242E800310029F3D12023C4F88830F2
:1045900000232367E36E012B03D02046FCF7BEF80F
:1045A00091E70023E366226852E8003F23F01003FE
:1045B00042E800310029F6D12368DA6912F0100FC1
:1045C00001D010221A62B4F85C102046FFF7D8FD23
:1045D00079E7B4F85E309BB2002B3FF465AFB4F8D6
:1045E00068209A427FF660AF226802F1080353E820
:1045F000003F23F08053083242E800310029F3D114
:10460000064B2367226852E8003F43F0200342E84C
:1046100000310029F6D147E7FEFFFFEF35420008E1
:1046200070B586B004460168836802691343426925
:104630001343C26913430868884A024013430B605E
:104640002268536823F44053E1680B435360A16927
:104650002268834B9A4201D0236A19439068814BA8
:1046600003400B4393602268D36A23F00F03616A0F
:104670000B43D36222687C4B9A4221D07B4B9A42F7
:1046800000F08C807A4B9A4200F0A280794B9A42DB
:1046900000F0B580784B9A4200F0C880774B9A4280
:1046A00000F0F480764B9A4200F01981754B9A42E3
:1046B00000F02C816A4B9A4200F03F81802333E066
:1046C000714B5B6D03F03803282B65D8DFE813F0DE
:1046D00029006400640064006400640064006400F5
:1046E0004D016400640064006400640064006400C0
:1046F0002B006400640064006400640064006400D3
:104700005E0064006400640064006400640064008F
:10471000600064006400640064006400640064007D
:104720006200012300E008234D498A4200F02F81F6
:10473000E069B0F5004F00F0AF81202B00F2078256
:10474000202B00F25182DFE813F01E0224024F02F8
:104750004F0227024F024F024F022C024F024F021C
:104760004F024F024F024F024F0231024F024F02DF
:104770004F024F024F024F024F024F024F024F02B1
:104780004F024F024F024F024F023D021023CBE770
:104790002023C9E74023C7E78023C5E73A4B5B6D79
:1047A00003F00703052B11D8DFE813F00600E10042
:1047B00008000A000C000E000023B5E70823B3E749
:1047C0001023B1E72023AFE74023ADE78023ABE719
:1047D0002D4B5B6D03F00703052B0ED8DFE803F0CC
:1047E00003C90507090B00239EE708239CE7102354
:1047F0009AE7202398E7402396E7802394E7224B0B
:104800005B6D03F00703052B0ED8DFE803F003B45C
:104810000507090B002387E7082385E7102383E7B3
:10482000202381E740237FE780237DE7164B5B6DE4
:1048300003F00703052B0ED8DFE803F0039F0507FD
:10484000090B002370E708236EE710236CE7202391
:104850006AE7402368E7802366E700BFF369FFCF7C
:10486000000C0058FFF4FF1100100140004400400C
:1048700000480040004C004000500040001401403F
:1048800000780040007C0040004402587D4B5B6D86
:1048900003F03803282B20D8DFE803F0151F1F1F73
:1048A0001F1F1F1F711F1F1F1F1F1F1F171F1F1FCE
:1048B0001F1F1F1F191F1F1F1F1F1F1F1B1F1F1F12
:1048C0001F1F1F1F1D0001232EE708232CE71023A5
:1048D0002AE7202328E7402326E7802324E7694BA3
:1048E0005B6D03F00703052B0ED8DFE803F0034AE6
:1048F0000507090B002317E7082315E7102313E723
:10490000202311E740230FE780230DE75D4B5B6D0C
:1049100003F00703052B0ED8DFE803F00335050786
:10492000090B002300E70823FEE61023FCE6202302
:10493000FAE64023F8E68023F6E603F50E339B6D96
:1049400003F00703052B0ED8DFE803F0031F05076C
:10495000090B0223E8E60823E6E61023E4E6202319
:10496000E2E64023E0E68023DEE60423DCE60423DF
:10497000DAE60423D8E60423D6E60423D4E60423A7
:10498000D2E60423D0E60423CEE60423CCE6202B93
:1049900027D8022BC0F01A81023B1E2B00F218818F
:1049A000DFE813F05000160156001601160116013B
:1049B0005B001601160116011601160116011601FB
:1049C00060001601160116011601160116011601E6
:1049D000160116011601160116011601160116011F
:1049E0006C00402B2CD14FF40040626A264B33F808
:1049F0001220B0FBF2F3656805EB4501994200F225
:104A0000E980B3EB053F00F2E780002633463146EC
:104A1000FBF7B6FC090241EA106100026B08C018FE
:104A20002A46334641F10001FBF7AAFCA0F540728B
:104A3000164B9A4200F2D2802368D8603046D4E008
:104A40000120D2E0FDF7DAFE0028CED10020CCE034
:104A500003A8FDF7E5FE0498F6E76846FDF7DCFFDE
:104A60000198F1E7074B1B6813F0200F08D0054BA6
:104A70001B68C3F3C1030648D840E5E70548B4E71F
:104A80000348B2E700440258347E0008FFFC0F00E0
:104A90000090D00300093D00202B15D8202B00F2F8
:104AA0009F80DFE803F031379D9D3A9D9D9D3F9D9E
:104AB0009D9D9D9D9D9D449D9D9D9D9D9D9D9D9D7F
:104AC0009D9D9D9D9D9D5000402B1BD1626A4D4B2D
:104AD00033F81230B0FBF3F06268530803EB400088
:104AE000B0FBF2F0A0F110024FF6EF739A4279D8C2
:104AF00083B223F00F03C0F3420018432368D86049
:104B0000002072E0012070E0FDF766F80028DDD19A
:104B100000206AE0FDF772F8F8E703A8FDF780FED1
:104B20000498F3E76846FDF777FF0198EEE7364B08
:104B30001B6813F0200F08D0334B1B68C3F3C1036D
:104B40003248D840E2E73248C0E73048BEE7402B61
:104B500017D14FF40040626A2A4B33F81230B0FB91
:104B6000F3F0636800EB5300B0FBF3F0A0F1100228
:104B70004FF6EF739A4242D8236880B2D860002083
:104B800033E0012031E0FDF727F80028E3D10020D1
:104B90002BE0FDF733F8F8E703A8FDF741FE049892
:104BA000F3E76846FDF738FF0198EEE7164B1B6800
:104BB00013F0200F08D0144B1B68C3F3C103134834
:104BC000D840E2E71248C6E71048C4E701200CE0ED
:104BD00001200AE0012008E0012006E0012004E0B5
:104BE000012002E0012000E001200123A4F86A3046
:104BF000A4F8683000232367636706B070BD012006
:104C0000F3E700BF347E0008004402580090D00350
:104C100000093D00836A13F0010F06D00268536853
:104C200023F40033C16A0B435360836A13F0020F0D
:104C300006D00268536823F48033016B0B43536042
:104C4000836A13F0040F06D00268536823F48023AC
:104C5000416B0B435360836A13F0080F06D0026860
:104C6000536823F40043816B0B435360836A13F052
:104C7000100F06D00268936823F48053C16B0B4376
:104C80009360836A13F0200F06D00268936823F4C0
:104C90000053016C0B439360836A13F0400F0AD0FA
:104CA0000268536823F48013416C0B435360436CD8
:104CB000B3F5801F0BD0836A13F0800F06D0026813
:104CC000536823F40023C16C0B43536070470268A0
:104CD000536823F4C003816C0B435360EBE72DE969
:104CE000F84305460F4616469946DDF820802C68A5
:104CF000E46937EA04030CBF4FF0010C4FF0000CDD
:104D0000B44557D1B8F1FF3FF1D0FEF723F9A0EB3E
:104D1000090040452FD8B8F1000F2CD02B681A6835
:104D200012F0040FE3D0DA6912F4006FDFD04FF411
:104D300000621A622A6852E8003F23F4D07342E806
:104D400000310029F6D12A6802F1080353E8003F38
:104D500023F00103083242E800310029F3D1202377
:104D6000C5F88430C5F88830C5F88C30002385F844
:104D7000803003201FE02A6852E8003F23F4D073FC
:104D800042E800310029F6D12A6802F1080353E80D
:104D9000003F23F00103083242E800310029F3D13B
:104DA0002023C5F88430C5F88830002385F880308A
:104DB000032000E00020BDE8F8832DE9F04182B037
:104DC0001E46D0F88430202B58D104460D4690461C
:104DD000002A18BF002955D090F88030012B53D0FD
:104DE000012380F880300023C0F88C302123C0F8E4
:104DF0008430FEF7AFF80746A4F85480A4F8568034
:104E0000A368B3F5805F05D04FF00008002384F855
:104E1000803012E0236913B14FF00008F6E7A8468E
:104E20000025F3E715F8012B23689A62B4F85620A1
:104E300092B2013A92B2A4F85620B4F856309BB21E
:104E400083B100963B46002280212046FFF747FFB2
:104E5000E0B9002DE6D138F8023B2268C3F308031D
:104E60009362E3E700963B46002240212046FFF78D
:104E700036FF68B92023C4F8843000E0022002B075
:104E8000BDE8F0810120FAE70220F8E70320F6E709
:104E90000320F4E730B583B004460023C0F88C301B
:104EA000FEF758F805462268126812F0080F0FD175
:104EB00023681B6813F0040F18D12023C4F8843032
:104EC000C4F888300020E06684F8800003B030BD6C
:104ED0006FF07E430093034600224FF400112046FA
:104EE000FFF7FDFE0028E3D00320EFE76FF07E43DD
:104EF00000932B4600224FF480012046FFF7EFFE7F
:104F00000028DAD00320E1E778B310B50446D0F8E2
:104F100084300BB32423C4F884302268136823F050
:104F2000010313602046FFF77BFB012813D0A36A1F
:104F3000BBB92268536823F4904353602268936896
:104F400023F02A0393602268136843F0010313607F
:104F50002046FFF79FFF10BD80F88030FBF764FF0D
:104F6000D8E72046FFF756FEE3E701207047000030
:104F700010B48165A0F85C20A0F85E2000230367D0
:104F80008368B3F5805F06D0A3B9036973B9FF23C3
:104F9000A0F8603014E0036923B940F2FF13A0F8D1
:104FA00060300DE0FF23A0F8603009E07F23A0F817
:104FB000603005E0B3F1805F31D00023A0F86030AD
:104FC0000023C0F88C302223C0F88830016801F13A
:104FD000080353E8003F43F00103083141E800347F
:104FE000002CF3D1436EB3F1005F22D08368B3F598
:104FF000805F49D02C4B0367002380F88030036921
:10500000002B47D0026852E8003F43F4907342E817
:1050100000310029F6D100205DF8044B7047036988
:105020001BB97F23A0F86030CAE73F23A0F86030A7
:10503000C6E7B0F868309342D8D88368B3F5805F8C
:105040001CD01A4B0367002380F88030036943B1FA
:10505000026852E8003F43F4807342E800310029BF
:10506000F6D1026802F1080353E8003F43F0805391
:10507000083242E800310029F3D1CCE70369002B64
:10508000DFD10B4B0367DEE70369002BB2D1094B7D
:105090000367B1E7026852E8003F43F0200342E8AB
:1050A00000310029F6D1B6E783410008E542000847
:1050B000854400083542000838B5D0F88830202BE8
:1050C00020D1002A18BF00291ED090F88030012B73
:1050D0001CD0012380F880300023C36603680C4C89
:1050E000A3420CD05B6813F4000F08D0046854E8A6
:1050F000003F43F0806344E80035002DF6D1FFF710
:1051000037FF00E0022038BD0120FCE70220FAE76B
:10511000000C0058436E2BB90123A0F86A30A0F8A8
:105120006830704730B403689A68C2F34262996885
:10513000490F094D6B5C1B01084C615C93FBF1F35B
:10514000A0F86A30AB5C1B01A25C93FBF2F3A0F801
:10515000683030BC704700BF547E00084C7E0008A9
:1051600090F88030012B18D0012380F88030242360
:10517000C0F8843003681A68196821F001011960C9
:1051800022F000520023436601680A602022C0F822
:10519000842080F88030184670470220704738B568
:1051A00090F88030012B1DD00446012380F8803018
:1051B0002423C0F8843003681D681A6822F00102B5
:1051C0001A600268936823F0604319439160FFF707
:1051D000A1FF23681D602023C4F88430002084F8D8
:1051E000800038BD0220FCE738B590F88030012BF4
:1051F0001DD00446012380F880302423C0F8843079
:1052000003681D681A6822F001021A600268936838
:1052100023F0606319439160FFF77CFF23681D60F2
:105220002023C4F88430002084F8800038BD022098
:10523000FCE70000274AD2F8883043F47003C2F834
:105240008830254B1B6803F00F03062B06D8224A33
:10525000136823F00F0343F0070313601F4B1A6812
:1052600042F001021A6000221A6119681C4A0A40C1
:105270001A60194B1B6813F0080F06D0164A136802
:1052800023F00F0343F007031360144B00229A61CD
:10529000DA611A62134999621349D9621349196391
:1052A0005A639963DA6319645A64196821F4802196
:1052B00019601A660E4B1A680E4B1340B3F1005F6B
:1052C00003D20D4B0122C3F808210C4B43F2D2024A
:1052D0001A60704700ED00E00020005200440258C0
:1052E0007FEDF6EA000202020000FF0180020101E8
:1052F0000010005C0000FFFF0080005100400052E1
:1053000000F1080343604FF0FF328260C360036125
:1053100000230360704700230361704743684B60BC
:105320009A688A605160996008610368013303607C
:10533000704730B40D68B5F1FF3F11D000F108039C
:105340001C465B681A68AA42FAD963684B60996088
:105350008C606160086103680133036030BC704792
:105360000469F2E70369416882688A6041685160B4
:105370005A68824206D0002202611A68013A1A6015
:105380001868704782685A60F5E710B5044601F066
:1053900089FCA26BE36B9A4204D0002401F0A4FCC8
:1053A000204610BD0124F9E710B5044601F07AFC4F
:1053B000A36B23B9012401F097FC204610BD002403
:1053C000F9E770B504461546866B026C5AB9036856
:1053D0001BB100200136A66370BD806800F0BCFFE1
:1053E0000023A360F6E76DB9406801F0C3FF226CAB
:1053F000636813446360A268934219D323686360AF
:105400002846E7E7C06801F0B5FF226C5142E36827
:105410009B1AE3602268934202D2A3680B44E360C4
:10542000022D01D00020D5E726B1013E0020D1E7B2
:105430002846CFE70020CDE70346026C6AB110B5DD
:105440000846D9681144D9609C68A14201D3196803
:10545000D960D96801F08EFF10BD704738B5054698
:1054600001F020FC95F8454064B201E0013C64B2D3
:10547000002C0ADD6B6A43B105F1240000F0C2FE86
:105480000028F3D000F052FFF0E7FF2385F8453005
:1054900001F02AFC01F006FC95F8444064B201E0FA
:1054A000013C64B2002C0ADD2B6943B105F1100008
:1054B00000F0A8FE0028F3D000F038FFF0E7FF234B
:1054C00085F8443001F010FC38BD38B5E0B10D4628
:1054D000044601F0E7FB2368E26B216C01FB02301C
:1054E000A0600020A0636360013A02FB0133E36027
:1054F000FF2384F8443084F84530FDB9236963B94B
:1055000001F0F2FB012038BD4FF0500383F3118806
:10551000BFF36F8FBFF34F8FFEE704F1100000F071
:1055200071FE0028ECD04FF0E0234FF08052C3F81A
:10553000042DBFF34F8FBFF36F8FE1E704F110002D
:10554000FFF7DEFE04F12400FFF7DAFED8E738B5F6
:105550001D46049C0B4649B92460E0632364012185
:105560002046FFF7B2FF84F84C5038BD2260F4E7C4
:1055700040B94FF0500383F31188BFF36F8FBFF32F
:105580004F8FFEE710B584B01C4683B10B1E18BFC9
:105590000123002A08BF43F001038BB94FF05003E9
:1055A00083F31188BFF36F8FBFF34F8FFEE74FF088
:1055B000500383F31188BFF36F8FBFF34F8FFEE764
:1055C000B1FA81F35B09002A18BF43F0010343B924
:1055D0004FF0500383F31188BFF36F8FBFF34F8FEA
:1055E000FEE750230393039B502B08D04FF050034A
:1055F00083F31188BFF36F8FBFF34F8FFEE7039BD9
:10560000012384F8463000949DF81830FFF79FFF7F
:10561000204604B010BDF0B585B0019288B10F46A8
:105620001D460446B1B1022D20D1E36B012B1DD0E4
:105630004FF0500383F31188BFF36F8FBFF34F8F89
:10564000FEE74FF0500383F31188BFF36F8FBFF372
:105650004F8FFEE7036C002BE5D04FF0500383F330
:105660001188BFF36F8FBFF34F8FFEE700F064FE2A
:10567000064658B9019B002B48D04FF0500383F3E6
:105680001188BFF36F8FBFF34F8FFEE700263DE019
:105690002A4639462046FFF794FE636A7BB948B133
:1056A0004FF0E0234FF08052C3F8042DBFF34F8F2B
:1056B000BFF36F8F01F018FB012005B0F0BD04F1BE
:1056C000240000F09FFD0028F4D04FF0E0234FF0BD
:1056D0008052C3F8042DBFF34F8FBFF36F8FE9E7FC
:1056E00001F002FB0020E8E702A800F0D1FD01264E
:1056F00019E0002384F8443021E0002384F8453089
:1057000023E02046FFF7AAFE00F082FC01F0CAFA6F
:10571000A26BE36B9A42BBD3022DB9D0019B002B45
:10572000DED0002EE0D001F0DFFA00F0D7FB01F070
:10573000B9FA94F8442052B2B2F1FF3FD9D094F8AC
:10574000452052B2B2F1FF3FD7D001F0CDFA01A906
:1057500002A800F0A9FDD8B92046FFF716FE0028E0
:10576000CFD0019904F1100000F018FD2046FFF79A
:1057700075FE00F04DFC0028C8D14FF0E0234FF03B
:105780008052C3F8042DBFF34F8FBFF36F8FBDE777
:105790002046FFF763FE00F03BFC00208DE72DE97B
:1057A000F84390B10F4616461C460546B1B1022C8F
:1057B00020D1EB6B012B1DD04FF0500383F31188E8
:1057C000BFF36F8FBFF34F8FFEE74FF0500383F3AC
:1057D0001188BFF36F8FBFF34F8FFEE7036C002B71
:1057E000E5D04FF0500383F31188BFF36F8FBFF301
:1057F0004F8FFEE701F07CFBEFF311894FF0500370
:1058000083F31188BFF36F8FBFF34F8FAA6BEB6BDE
:105810009A4206D3022C04D0002089F31188BDE8F7
:10582000F88395F845804FFA88F8AB6B22463946E5
:105830002846FFF7C6FDB8F1FF3F06D008F1010387
:105840005BB285F845300120E7E76B6A0BB90120B0
:10585000E3E705F1240000F0D5FC18B126B10120E2
:105860003060DAE70120D8E70120D6E7F0B585B04F
:10587000019290B10F460446C1B100F05DFD0646AD
:1058800000BB019B002B5ED04FF0500383F31188C7
:10589000BFF36F8FBFF34F8FFEE74FF0500383F3DB
:1058A0001188BFF36F8FBFF34F8FFEE7036C002BA0
:1058B000E3D04FF0500383F31188BFF36F8FBFF332
:1058C0004F8FFEE700263EE039462046FFF7B4FD45
:1058D000013DA563236923B901F006FA012005B053
:1058E000F0BD04F1100000F08DFC0028F4D04FF062
:1058F000E0234FF08052C3F8042DBFF34F8FBFF366
:105900006F8FE9E701F0F0F90020E8E702A800F066
:10591000BFFC012621E0002384F8443029E0002365
:1059200084F845302BE02046FFF798FD00F070FB2F
:1059300009E02046FFF792FD00F06AFB2046FFF7E2
:1059400033FD00283FD101F0ADF9A56B002DBBD18F
:10595000019B002BD6D0002ED8D001F0C5F900F065
:10596000BDFA01F09FF994F844305BB2B3F1FF3F08
:10597000D1D094F845305BB2B3F1FF3FCFD001F006
:10598000B3F901A902A800F08FFC0028D1D120466C
:10599000FFF70AFD0028C6D0019904F1240000F0A9
:1059A000FDFB2046FFF75AFD00F032FB0028CAD16C
:1059B0004FF0E0234FF08052C3F8042DBFF34F8F18
:1059C000BFF36F8FBFE7002089E700000023072B9C
:1059D0000CD8074A52F833200AB10133F7E7044ADA
:1059E00042F8331002EBC30358607047704700BFA2
:1059F000EC05002070B504460D46164601F052F93C
:105A000094F844305BB2B3F1FF3F0DD094F84530C9
:105A10005BB2B3F1FF3F0BD001F066F9A36B5BB152
:105A20002046FFF71BFD70BD002384F84430EDE7EE
:105A3000002384F84530EFE73246294604F124007C
:105A400000F0C4FBECE70000084B1B681B6823B99F
:105A5000074B4FF0FF321A607047044B1B68DB683E
:105A6000DB685A68024B1A60704700BF300600209E
:105A7000D80A00202DE9F04780460D461746994682
:105A8000089EDDF824A00A9C9200A521206B01F05D
:105A90007FFC236B6FF040423A4403EB820727F010
:105AA0000707B5B34FF0000CBCF10F0F0BD815F87A
:105AB0000C2004EB0C0383F8342015F80C3013B1E0
:105AC0000CF1010CF0E7002384F84330372E00D9A5
:105AD0003726E662E66400252565201DFFF71BFCDE
